{
  "_format": "hh-sol-artifact-1",
  "contractName": "WorldOwnable",
  "sourceName": "contracts/WorldOwnable.sol",
  "abi": [
    {
      "inputs": [
        {
          "internalType": "contract IWorldID",
          "name": "_worldId",
          "type": "address"
        },
        {
          "internalType": "string",
          "name": "_appId",
          "type": "string"
        },
        {
          "internalType": "string",
          "name": "_action",
          "type": "string"
        },
        {
          "internalType": "address",
          "name": "signal",
          "type": "address"
        },
        {
          "internalType": "uint256",
          "name": "root",
          "type": "uint256"
        },
        {
          "internalType": "uint256",
          "name": "nullifierHash",
          "type": "uint256"
        },
        {
          "internalType": "uint256[8]",
          "name": "proof",
          "type": "uint256[8]"
        }
      ],
      "stateMutability": "nonpayable",
      "type": "constructor"
    },
    {
      "inputs": [],
      "name": "InvalidNullifier",
      "type": "error"
    },
    {
      "inputs": [
        {
          "internalType": "address",
          "name": "owner",
          "type": "address"
        }
      ],
      "name": "OwnableInvalidOwner",
      "type": "error"
    },
    {
      "inputs": [
        {
          "internalType": "address",
          "name": "account",
          "type": "address"
        }
      ],
      "name": "OwnableUnauthorizedAccount",
      "type": "error"
    },
    {
      "anonymous": false,
      "inputs": [
        {
          "indexed": true,
          "internalType": "address",
          "name": "previousOwner",
          "type": "address"
        },
        {
          "indexed": true,
          "internalType": "address",
          "name": "newOwner",
          "type": "address"
        }
      ],
      "name": "OwnershipTransferred",
      "type": "event"
    },
    {
      "inputs": [
        {
          "internalType": "address",
          "name": "signal",
          "type": "address"
        },
        {
          "internalType": "uint256",
          "name": "root",
          "type": "uint256"
        },
        {
          "internalType": "uint256",
          "name": "nullifierHash",
          "type": "uint256"
        },
        {
          "internalType": "uint256[8]",
          "name": "proof",
          "type": "uint256[8]"
        }
      ],
      "name": "claimOwnership",
      "outputs": [],
      "stateMutability": "nonpayable",
      "type": "function"
    },
    {
      "inputs": [],
      "name": "owner",
      "outputs": [
        {
          "internalType": "address",
          "name": "",
          "type": "address"
        }
      ],
      "stateMutability": "view",
      "type": "function"
    },
    {
      "inputs": [
        {
          "internalType": "address",
          "name": "newOwner",
          "type": "address"
        }
      ],
      "name": "transferOwnership",
      "outputs": [],
      "stateMutability": "nonpayable",
      "type": "function"
    }
  ],
  "bytecode": "0x60e0604052600160c0908152503480156200001957600080fd5b50604051620010b5380380620010b583398181016040528101906200003f91906200051b565b8673ffffffffffffffffffffffffffffffffffffffff1660808173ffffffffffffffffffffffffffffffffffffffff1681525050620000d8620000a9876040516020016200008e91906200065a565b604051602081830303815290604052620001a160201b60201c565b86604051602001620000bd92919062000698565b604051602081830303815290604052620001a160201b60201c565b60a0818152505060805173ffffffffffffffffffffffffffffffffffffffff16633bc778e38460c051620001338860405160200162000118919062000714565b604051602081830303815290604052620001a160201b60201c565b8660a051876040518763ffffffff1660e01b81526004016200015b96959493929190620007fd565b60006040518083038186803b1580156200017457600080fd5b505afa15801562000189573d6000803e3d6000fd5b505050508160018190555050505050505050620008d1565b6000600882604051602001620001b89190620008b8565b6040516020818303038152906040528051906020012060001c901c9050919050565b6000604051905090565b600080fd5b600080fd5b600073ffffffffffffffffffffffffffffffffffffffff82169050919050565b60006200021b82620001ee565b9050919050565b60006200022f826200020e565b9050919050565b620002418162000222565b81146200024d57600080fd5b50565b600081519050620002618162000236565b92915050565b600080fd5b600080fd5b6000601f19601f8301169050919050565b7f4e487b7100000000000000000000000000000000000000000000000000000000600052604160045260246000fd5b620002bc8262000271565b810181811067ffffffffffffffff82111715620002de57620002dd62000282565b5b80604052505050565b6000620002f3620001da565b9050620003018282620002b1565b919050565b600067ffffffffffffffff82111562000324576200032362000282565b5b6200032f8262000271565b9050602081019050919050565b60005b838110156200035c5780820151818401526020810190506200033f565b60008484015250505050565b60006200037f620003798462000306565b620002e7565b9050828152602081018484840111156200039e576200039d6200026c565b5b620003ab8482856200033c565b509392505050565b600082601f830112620003cb57620003ca62000267565b5b8151620003dd84826020860162000368565b91505092915050565b620003f1816200020e565b8114620003fd57600080fd5b50565b6000815190506200041181620003e6565b92915050565b6000819050919050565b6200042c8162000417565b81146200043857600080fd5b50565b6000815190506200044c8162000421565b92915050565b600067ffffffffffffffff82111562000470576200046f62000282565b5b602082029050919050565b600080fd5b600062000497620004918462000452565b620002e7565b90508060208402830185811115620004b457620004b36200047b565b5b835b81811015620004e15780620004cc88826200043b565b845260208401935050602081019050620004b6565b5050509392505050565b600082601f83011262000503576200050262000267565b5b60086200051284828562000480565b91505092915050565b60008060008060008060006101c0888a0312156200053e576200053d620001e4565b5b60006200054e8a828b0162000250565b975050602088015167ffffffffffffffff811115620005725762000571620001e9565b5b620005808a828b01620003b3565b965050604088015167ffffffffffffffff811115620005a457620005a3620001e9565b5b620005b28a828b01620003b3565b9550506060620005c58a828b0162000400565b9450506080620005d88a828b016200043b565b93505060a0620005eb8a828b016200043b565b92505060c0620005fe8a828b01620004eb565b91505092959891949750929550565b600081519050919050565b600081905092915050565b600062000630826200060d565b6200063c818562000618565b93506200064e8185602086016200033c565b80840191505092915050565b600062000668828462000623565b915081905092915050565b6000819050919050565b620006926200068c8262000417565b62000673565b82525050565b6000620006a682856200067d565b602082019150620006b8828462000623565b91508190509392505050565b60008160601b9050919050565b6000620006de82620006c4565b9050919050565b6000620006f282620006d1565b9050919050565b6200070e62000708826200020e565b620006e5565b82525050565b6000620007228284620006f9565b60148201915081905092915050565b6200073c8162000417565b82525050565b600060089050919050565b600081905092915050565b6000819050919050565b6200076d8162000417565b82525050565b600062000781838362000762565b60208301905092915050565b6000602082019050919050565b620007a58162000742565b620007b181846200074d565b9250620007be8262000758565b8060005b83811015620007f5578151620007d9878262000773565b9650620007e6836200078d565b925050600181019050620007c2565b505050505050565b60006101a08201905062000815600083018962000731565b62000824602083018862000731565b62000833604083018762000731565b62000842606083018662000731565b62000851608083018562000731565b6200086060a08301846200079a565b979650505050505050565b600081519050919050565b600081905092915050565b60006200088e826200086b565b6200089a818562000876565b9350620008ac8185602086016200033c565b80840191505092915050565b6000620008c6828462000881565b915081905092915050565b60805160a05160c0516107b4620009016000396000610148015260006101920152600061010b01526107b46000f3fe608060405234801561001057600080fd5b50600436106100415760003560e01c80638da5cb5b14610046578063949980e514610064578063f2fde38b14610080575b600080fd5b61004e61009c565b60405161005b919061044d565b60405180910390f35b61007e600480360381019061007991906104f6565b6100c5565b005b61009a6004803603810190610095919061055e565b610212565b005b60008060009054906101000a900473ffffffffffffffffffffffffffffffffffffffff16905090565b6001548214610109576040517f08c379a0000000000000000000000000000000000000000000000000000000008152600401610100906105e8565b60405180910390fd5b7f000000000000000000000000000000000000000000000000000000000000000073ffffffffffffffffffffffffffffffffffffffff16633bc778e3847f000000000000000000000000000000000000000000000000000000000000000061018f8860405160200161017b9190610650565b604051602081830303815290604052610298565b867f0000000000000000000000000000000000000000000000000000000000000000876040518763ffffffff1660e01b81526004016101d396959493929190610694565b60006040518083038186803b1580156101eb57600080fd5b505afa1580156101ff573d6000803e3d6000fd5b5050505061020c336102cf565b50505050565b61021a610393565b600073ffffffffffffffffffffffffffffffffffffffff168173ffffffffffffffffffffffffffffffffffffffff160361028c5760006040517f1e4fbdf7000000000000000000000000000000000000000000000000000000008152600401610283919061044d565b60405180910390fd5b610295816102cf565b50565b60006008826040516020016102ad9190610767565b6040516020818303038152906040528051906020012060001c901c9050919050565b60008060009054906101000a900473ffffffffffffffffffffffffffffffffffffffff169050816000806101000a81548173ffffffffffffffffffffffffffffffffffffffff021916908373ffffffffffffffffffffffffffffffffffffffff1602179055508173ffffffffffffffffffffffffffffffffffffffff168173ffffffffffffffffffffffffffffffffffffffff167f8be0079c531659141344cd1fd0a4f28419497f9722a3daafe3b4186f6b6457e060405160405180910390a35050565b3373ffffffffffffffffffffffffffffffffffffffff166103b261009c565b73ffffffffffffffffffffffffffffffffffffffff161461040a57336040517f118cdaa7000000000000000000000000000000000000000000000000000000008152600401610401919061044d565b60405180910390fd5b565b600073ffffffffffffffffffffffffffffffffffffffff82169050919050565b60006104378261040c565b9050919050565b6104478161042c565b82525050565b6000602082019050610462600083018461043e565b92915050565b600080fd5b6104768161042c565b811461048157600080fd5b50565b6000813590506104938161046d565b92915050565b6000819050919050565b6104ac81610499565b81146104b757600080fd5b50565b6000813590506104c9816104a3565b92915050565b600080fd5b6000819050826020600802820111156104f0576104ef6104cf565b5b92915050565b600080600080610160858703121561051157610510610468565b5b600061051f87828801610484565b9450506020610530878288016104ba565b9350506040610541878288016104ba565b9250506060610552878288016104d4565b91505092959194509250565b60006020828403121561057457610573610468565b5b600061058284828501610484565b91505092915050565b600082825260208201905092915050565b7f496e76616c69642070726f6f6600000000000000000000000000000000000000600082015250565b60006105d2600d8361058b565b91506105dd8261059c565b602082019050919050565b60006020820190508181036000830152610601816105c5565b9050919050565b60008160601b9050919050565b600061062082610608565b9050919050565b600061063282610615565b9050919050565b61064a6106458261042c565b610627565b82525050565b600061065c8284610639565b60148201915081905092915050565b61067481610499565b82525050565b82818337505050565b610690610100838361067a565b5050565b60006101a0820190506106aa600083018961066b565b6106b7602083018861066b565b6106c4604083018761066b565b6106d1606083018661066b565b6106de608083018561066b565b6106eb60a0830184610683565b979650505050505050565b600081519050919050565b600081905092915050565b60005b8381101561072a57808201518184015260208101905061070f565b60008484015250505050565b6000610741826106f6565b61074b8185610701565b935061075b81856020860161070c565b80840191505092915050565b60006107738284610736565b91508190509291505056fea264697066735822122036f82079618b133319a1623c7997de51a1ae4b06e7ce97c92750acfc8d04bb0664736f6c63430008130033",
  "linkReferences": {},
  "deployedLinkReferences": {}
}