{
  "_format": "hh-sol-artifact-1",
  "contractName": "WorldOwnable",
  "sourceName": "contracts/WorldOwnable.sol",
  "abi": [
    {
      "inputs": [
        {
          "internalType": "contract IWorldID",
          "name": "_worldId",
          "type": "address"
        },
        {
          "internalType": "string",
          "name": "_appId",
          "type": "string"
        },
        {
          "internalType": "string",
          "name": "_action",
          "type": "string"
        },
        {
          "internalType": "address",
          "name": "signal",
          "type": "address"
        },
        {
          "internalType": "uint256",
          "name": "root",
          "type": "uint256"
        },
        {
          "internalType": "uint256",
          "name": "nullifierHash",
          "type": "uint256"
        },
        {
          "internalType": "uint256[8]",
          "name": "proof",
          "type": "uint256[8]"
        }
      ],
      "stateMutability": "nonpayable",
      "type": "constructor"
    },
    {
      "inputs": [],
      "name": "InvalidNullifier",
      "type": "error"
    },
    {
      "inputs": [
        {
          "internalType": "address",
          "name": "owner",
          "type": "address"
        }
      ],
      "name": "OwnableInvalidOwner",
      "type": "error"
    },
    {
      "inputs": [
        {
          "internalType": "address",
          "name": "account",
          "type": "address"
        }
      ],
      "name": "OwnableUnauthorizedAccount",
      "type": "error"
    },
    {
      "anonymous": false,
      "inputs": [
        {
          "indexed": true,
          "internalType": "address",
          "name": "previousOwner",
          "type": "address"
        },
        {
          "indexed": true,
          "internalType": "address",
          "name": "newOwner",
          "type": "address"
        }
      ],
      "name": "OwnershipTransferred",
      "type": "event"
    },
    {
      "inputs": [
        {
          "internalType": "address",
          "name": "signal",
          "type": "address"
        },
        {
          "internalType": "uint256",
          "name": "root",
          "type": "uint256"
        },
        {
          "internalType": "uint256",
          "name": "nullifierHash",
          "type": "uint256"
        },
        {
          "internalType": "uint256[8]",
          "name": "proof",
          "type": "uint256[8]"
        }
      ],
      "name": "claimOwnership",
      "outputs": [],
      "stateMutability": "nonpayable",
      "type": "function"
    },
    {
      "inputs": [],
      "name": "owner",
      "outputs": [
        {
          "internalType": "address",
          "name": "",
          "type": "address"
        }
      ],
      "stateMutability": "view",
      "type": "function"
    },
    {
      "inputs": [
        {
          "internalType": "address",
          "name": "newOwner",
          "type": "address"
        }
      ],
      "name": "transferOwnership",
      "outputs": [],
      "stateMutability": "nonpayable",
      "type": "function"
    }
  ],
  "bytecode": "0x60e0604052600160c0908152503480156200001957600080fd5b50604051620010f5380380620010f583398181016040528101906200003f91906200055b565b8673ffffffffffffffffffffffffffffffffffffffff1660808173ffffffffffffffffffffffffffffffffffffffff1681525050620000d8620000a9876040516020016200008e91906200069a565b604051602081830303815290604052620001e160201b60201c565b86604051602001620000bd929190620006d8565b604051602081830303815290604052620001e160201b60201c565b60a0818152505060805173ffffffffffffffffffffffffffffffffffffffff16633bc778e38460c051620001338860405160200162000118919062000754565b604051602081830303815290604052620001e160201b60201c565b8660a051876040518763ffffffff1660e01b81526004016200015b969594939291906200083d565b60006040518083038186803b1580156200017457600080fd5b505afa15801562000189573d6000803e3d6000fd5b50505050336000806101000a81548173ffffffffffffffffffffffffffffffffffffffff021916908373ffffffffffffffffffffffffffffffffffffffff160217905550816001819055505050505050505062000911565b6000600882604051602001620001f89190620008f8565b6040516020818303038152906040528051906020012060001c901c9050919050565b6000604051905090565b600080fd5b600080fd5b600073ffffffffffffffffffffffffffffffffffffffff82169050919050565b60006200025b826200022e565b9050919050565b60006200026f826200024e565b9050919050565b620002818162000262565b81146200028d57600080fd5b50565b600081519050620002a18162000276565b92915050565b600080fd5b600080fd5b6000601f19601f8301169050919050565b7f4e487b7100000000000000000000000000000000000000000000000000000000600052604160045260246000fd5b620002fc82620002b1565b810181811067ffffffffffffffff821117156200031e576200031d620002c2565b5b80604052505050565b6000620003336200021a565b9050620003418282620002f1565b919050565b600067ffffffffffffffff821115620003645762000363620002c2565b5b6200036f82620002b1565b9050602081019050919050565b60005b838110156200039c5780820151818401526020810190506200037f565b60008484015250505050565b6000620003bf620003b98462000346565b62000327565b905082815260208101848484011115620003de57620003dd620002ac565b5b620003eb8482856200037c565b509392505050565b600082601f8301126200040b576200040a620002a7565b5b81516200041d848260208601620003a8565b91505092915050565b62000431816200024e565b81146200043d57600080fd5b50565b600081519050620004518162000426565b92915050565b6000819050919050565b6200046c8162000457565b81146200047857600080fd5b50565b6000815190506200048c8162000461565b92915050565b600067ffffffffffffffff821115620004b057620004af620002c2565b5b602082029050919050565b600080fd5b6000620004d7620004d18462000492565b62000327565b90508060208402830185811115620004f457620004f3620004bb565b5b835b818110156200052157806200050c88826200047b565b845260208401935050602081019050620004f6565b5050509392505050565b600082601f830112620005435762000542620002a7565b5b600862000552848285620004c0565b91505092915050565b60008060008060008060006101c0888a0312156200057e576200057d62000224565b5b60006200058e8a828b0162000290565b975050602088015167ffffffffffffffff811115620005b257620005b162000229565b5b620005c08a828b01620003f3565b965050604088015167ffffffffffffffff811115620005e457620005e362000229565b5b620005f28a828b01620003f3565b9550506060620006058a828b0162000440565b9450506080620006188a828b016200047b565b93505060a06200062b8a828b016200047b565b92505060c06200063e8a828b016200052b565b91505092959891949750929550565b600081519050919050565b600081905092915050565b600062000670826200064d565b6200067c818562000658565b93506200068e8185602086016200037c565b80840191505092915050565b6000620006a8828462000663565b915081905092915050565b6000819050919050565b620006d2620006cc8262000457565b620006b3565b82525050565b6000620006e68285620006bd565b602082019150620006f8828462000663565b91508190509392505050565b60008160601b9050919050565b60006200071e8262000704565b9050919050565b6000620007328262000711565b9050919050565b6200074e62000748826200024e565b62000725565b82525050565b600062000762828462000739565b60148201915081905092915050565b6200077c8162000457565b82525050565b600060089050919050565b600081905092915050565b6000819050919050565b620007ad8162000457565b82525050565b6000620007c18383620007a2565b60208301905092915050565b6000602082019050919050565b620007e58162000782565b620007f181846200078d565b9250620007fe8262000798565b8060005b8381101562000835578151620008198782620007b3565b96506200082683620007cd565b92505060018101905062000802565b505050505050565b60006101a08201905062000855600083018962000771565b62000864602083018862000771565b62000873604083018762000771565b62000882606083018662000771565b62000891608083018562000771565b620008a060a0830184620007da565b979650505050505050565b600081519050919050565b600081905092915050565b6000620008ce82620008ab565b620008da8185620008b6565b9350620008ec8185602086016200037c565b80840191505092915050565b6000620009068284620008c1565b915081905092915050565b60805160a05160c0516107b4620009416000396000610148015260006101920152600061010b01526107b46000f3fe608060405234801561001057600080fd5b50600436106100415760003560e01c80638da5cb5b14610046578063949980e514610064578063f2fde38b14610080575b600080fd5b61004e61009c565b60405161005b919061044d565b60405180910390f35b61007e600480360381019061007991906104f6565b6100c5565b005b61009a6004803603810190610095919061055e565b610212565b005b60008060009054906101000a900473ffffffffffffffffffffffffffffffffffffffff16905090565b6001548214610109576040517f08c379a0000000000000000000000000000000000000000000000000000000008152600401610100906105e8565b60405180910390fd5b7f000000000000000000000000000000000000000000000000000000000000000073ffffffffffffffffffffffffffffffffffffffff16633bc778e3847f000000000000000000000000000000000000000000000000000000000000000061018f8860405160200161017b9190610650565b604051602081830303815290604052610298565b867f0000000000000000000000000000000000000000000000000000000000000000876040518763ffffffff1660e01b81526004016101d396959493929190610694565b60006040518083038186803b1580156101eb57600080fd5b505afa1580156101ff573d6000803e3d6000fd5b5050505061020c336102cf565b50505050565b61021a610393565b600073ffffffffffffffffffffffffffffffffffffffff168173ffffffffffffffffffffffffffffffffffffffff160361028c5760006040517f1e4fbdf7000000000000000000000000000000000000000000000000000000008152600401610283919061044d565b60405180910390fd5b610295816102cf565b50565b60006008826040516020016102ad9190610767565b6040516020818303038152906040528051906020012060001c901c9050919050565b60008060009054906101000a900473ffffffffffffffffffffffffffffffffffffffff169050816000806101000a81548173ffffffffffffffffffffffffffffffffffffffff021916908373ffffffffffffffffffffffffffffffffffffffff1602179055508173ffffffffffffffffffffffffffffffffffffffff168173ffffffffffffffffffffffffffffffffffffffff167f8be0079c531659141344cd1fd0a4f28419497f9722a3daafe3b4186f6b6457e060405160405180910390a35050565b3373ffffffffffffffffffffffffffffffffffffffff166103b261009c565b73ffffffffffffffffffffffffffffffffffffffff161461040a57336040517f118cdaa7000000000000000000000000000000000000000000000000000000008152600401610401919061044d565b60405180910390fd5b565b600073ffffffffffffffffffffffffffffffffffffffff82169050919050565b60006104378261040c565b9050919050565b6104478161042c565b82525050565b6000602082019050610462600083018461043e565b92915050565b600080fd5b6104768161042c565b811461048157600080fd5b50565b6000813590506104938161046d565b92915050565b6000819050919050565b6104ac81610499565b81146104b757600080fd5b50565b6000813590506104c9816104a3565b92915050565b600080fd5b6000819050826020600802820111156104f0576104ef6104cf565b5b92915050565b600080600080610160858703121561051157610510610468565b5b600061051f87828801610484565b9450506020610530878288016104ba565b9350506040610541878288016104ba565b9250506060610552878288016104d4565b91505092959194509250565b60006020828403121561057457610573610468565b5b600061058284828501610484565b91505092915050565b600082825260208201905092915050565b7f496e76616c69642070726f6f6600000000000000000000000000000000000000600082015250565b60006105d2600d8361058b565b91506105dd8261059c565b602082019050919050565b60006020820190508181036000830152610601816105c5565b9050919050565b60008160601b9050919050565b600061062082610608565b9050919050565b600061063282610615565b9050919050565b61064a6106458261042c565b610627565b82525050565b600061065c8284610639565b60148201915081905092915050565b61067481610499565b82525050565b82818337505050565b610690610100838361067a565b5050565b60006101a0820190506106aa600083018961066b565b6106b7602083018861066b565b6106c4604083018761066b565b6106d1606083018661066b565b6106de608083018561066b565b6106eb60a0830184610683565b979650505050505050565b600081519050919050565b600081905092915050565b60005b8381101561072a57808201518184015260208101905061070f565b60008484015250505050565b6000610741826106f6565b61074b8185610701565b935061075b81856020860161070c565b80840191505092915050565b60006107738284610736565b91508190509291505056fea26469706673582212203845d6c321195bc6b6a13e8c757499d737d37c2bf815efb7006ace054dd447fb64736f6c63430008130033",
  "linkReferences": {},
  "deployedLinkReferences": {}
}